dhcp discover 过滤
eth.addr == ff:ff:ff:ff:ff:ff

将内容拷贝过来：展开全部，复制所有可见项目
dhcp属于udp协议



DHCP NAK：
服务器对客户端的 DHCP REQUEST 报文的拒绝响应报文，比如服务器对客户
端分配的 IP 地址已超过使用租借期限（服务器没有找到相应的租约记录）或者由于某些原
因无法正常分配 IP 地址，则发送 DHCP NAK 报文作为应答（客户端移到了另一个新的网络）。
通知 DHCP 客户端无法分配合适 IP 地址。DHCP 客户端需要重新发送
DHCP DISCOVERY 报文
来申请新的 IP 地址。




Frame 20731: 590 bytes on wire (4720 bits), 590 bytes captured (4720 bits) on interface 0
    Interface id: 0 (\Device\NPF_{0D133629-3E86-4133-9D89-4F7DF2E1C4F9})
    Encapsulation type: Ethernet (1)
    Arrival Time: Nov 16, 2022 18:20:14.883532000 中国标准时间
    [Time shift for this packet: 0.000000000 seconds]
    Epoch Time: 1668594014.883532000 seconds
    [Time delta from previous captured frame: 0.004099000 seconds]
    [Time delta from previous displayed frame: 15.579820000 seconds]
    [Time since reference or first frame: 135.088501000 seconds]
    Frame Number: 20731
    Frame Length: 590 bytes (4720 bits)
    Capture Length: 590 bytes (4720 bits)
    [Frame is marked: False]
    [Frame is ignored: False]
    [Protocols in frame: eth:ethertype:ip:udp:bootp]
    [Coloring Rule Name: UDP]
    [Coloring Rule String: udp]
Ethernet II, Src: bogon (54:75:95:17:b5:26), Dst: Broadcast (ff:ff:ff:ff:ff:ff)
    Destination: Broadcast (ff:ff:ff:ff:ff:ff)
        Address: Broadcast (ff:ff:ff:ff:ff:ff)
        .... ..1. .... .... .... .... = LG bit: Locally administered address (this is NOT the factory default)
        .... ...1 .... .... .... .... = IG bit: Group address (multicast/broadcast)
    Source: bogon (54:75:95:17:b5:26)
        Address: bogon (54:75:95:17:b5:26)
        .... ..0. .... .... .... .... = LG bit: Globally unique address (factory default)
        .... ...0 .... .... .... .... = IG bit: Individual address (unicast)
    Type: IPv4 (0x0800)
Internet Protocol Version 4, Src: 192.168.0.104 (192.168.0.104), Dst: 255.255.255.255 (255.255.255.255)
    0100 .... = Version: 4
    .... 0101 = Header Length: 20 bytes (5)
    Differentiated Services Field: 0x00 (DSCP: CS0, ECN: Not-ECT)
        0000 00.. = Differentiated Services Codepoint: Default (0)
        .... ..00 = Explicit Congestion Notification: Not ECN-Capable Transport (0)
    Total Length: 576
    Identification: 0x006e (110)
    Flags: 0x02 (Don't Fragment)
        0... .... = Reserved bit: Not set
        .1.. .... = Don't fragment: Set
        ..0. .... = More fragments: Not set
    Fragment offset: 0
    Time to live: 64
    Protocol: UDP (17)
    Header checksum: 0x772f [validation disabled]
    [Header checksum status: Unverified]
    Source: 192.168.0.104 (192.168.0.104)
    Destination: 255.255.255.255 (255.255.255.255)
    [Source GeoIP: Unknown]
    [Destination GeoIP: Unknown]
User Datagram Protocol, Src Port: bootps (67), Dst Port: bootpc (68)
    Source Port: bootps (67)
    Destination Port: bootpc (68)
    Length: 556
    Checksum: 0xabb3 [unverified]
    [Checksum Status: Unverified]
    [Stream index: 175]
Bootstrap Protocol (NAK)
    Message type: Boot Reply (2)
    Hardware type: Ethernet (0x01)
    Hardware address length: 6
    Hops: 0
    Transaction ID: 0x0ee6522e
    Seconds elapsed: 0
    Bootp flags: 0x0000 (Unicast)
        0... .... .... .... = Broadcast flag: Unicast
        .000 0000 0000 0000 = Reserved flags: 0x0000
    Client IP address: 192.168.0.101 (192.168.0.101)
    Your (client) IP address: 0.0.0.0 (0.0.0.0)
    Next server IP address: 0.0.0.0 (0.0.0.0)
    Relay agent IP address: 0.0.0.0 (0.0.0.0)
    Client MAC address: 60:7e:a4:ac:57:20 (60:7e:a4:ac:57:20)
    Client hardware address padding: 00000000000000000000
    Server host name not given
    Boot file name not given
    Magic cookie: DHCP
    Option: (53) DHCP Message Type (NAK)
        Length: 1
        DHCP: NAK (6)
    Option: (54) DHCP Server Identifier
        Length: 4
        DHCP Server Identifier: 192.168.0.104 (192.168.0.104)
    Option: (255) End
        Option End: 255
    Padding: 000000000000000000000000000000000000000000000000...





0000   ff ff ff ff ff ff 54 75 95 17 b5 26 08 00 45 00  ......Tu...&..E.
0010   02 40 00 6e 40 00 40 11 77 2f c0 a8 00 68 ff ff  .@.n@.@.w/...h..
0020   ff ff 00 43 00 44 02 2c ab b3 02 01 06 00 0e e6  ...C.D.,........
0030   52 2e 00 00 00 00 c0 a8 00 65 00 00 00 00 00 00  R........e......
0040   00 00 00 00 00 00 60 7e a4 ac 57 20 00 00 00 00  ......`~..W ....
0050   00 00 00 00 00 00 00 00 00 00 00 00 00 00 00 00  ................
0060   00 00 00 00 00 00 00 00 00 00 00 00 00 00 00 00  ................
0070   00 00 00 00 00 00 00 00 00 00 00 00 00 00 00 00  ................
0080   00 00 00 00 00 00 00 00 00 00 00 00 00 00 00 00  ................
0090   00 00 00 00 00 00 00 00 00 00 00 00 00 00 00 00  ................
00a0   00 00 00 00 00 00 00 00 00 00 00 00 00 00 00 00  ................
00b0   00 00 00 00 00 00 00 00 00 00 00 00 00 00 00 00  ................
00c0   00 00 00 00 00 00 00 00 00 00 00 00 00 00 00 00  ................
00d0   00 00 00 00 00 00 00 00 00 00 00 00 00 00 00 00  ................
00e0   00 00 00 00 00 00 00 00 00 00 00 00 00 00 00 00  ................
00f0   00 00 00 00 00 00 00 00 00 00 00 00 00 00 00 00  ................
0100   00 00 00 00 00 00 00 00 00 00 00 00 00 00 00 00  ................
0110   00 00 00 00 00 00 63 82 53 63 35 01 06 36 04 c0  ......c.Sc5..6..
0120   a8 00 68 ff 00 00 00 00 00 00 00 00 00 00 00 00  ..h.............
0130   00 00 00 00 00 00 00 00 00 00 00 00 00 00 00 00  ................
0140   00 00 00 00 00 00 00 00 00 00 00 00 00 00 00 00  ................
0150   00 00 00 00 00 00 00 00 00 00 00 00 00 00 00 00  ................
0160   00 00 00 00 00 00 00 00 00 00 00 00 00 00 00 00  ................
0170   00 00 00 00 00 00 00 00 00 00 00 00 00 00 00 00  ................
0180   00 00 00 00 00 00 00 00 00 00 00 00 00 00 00 00  ................
0190   00 00 00 00 00 00 00 00 00 00 00 00 00 00 00 00  ................
01a0   00 00 00 00 00 00 00 00 00 00 00 00 00 00 00 00  ................
01b0   00 00 00 00 00 00 00 00 00 00 00 00 00 00 00 00  ................
01c0   00 00 00 00 00 00 00 00 00 00 00 00 00 00 00 00  ................
01d0   00 00 00 00 00 00 00 00 00 00 00 00 00 00 00 00  ................
01e0   00 00 00 00 00 00 00 00 00 00 00 00 00 00 00 00  ................
01f0   00 00 00 00 00 00 00 00 00 00 00 00 00 00 00 00  ................
0200   00 00 00 00 00 00 00 00 00 00 00 00 00 00 00 00  ................
0210   00 00 00 00 00 00 00 00 00 00 00 00 00 00 00 00  ................
0220   00 00 00 00 00 00 00 00 00 00 00 00 00 00 00 00  ................
0230   00 00 00 00 00 00 00 00 00 00 00 00 00 00 00 00  ................
0240   00 00 00 00 00 00 00 00 00 00 00 00 00 00        ..............

