
Frame 46837: 590 bytes on wire (4720 bits), 590 bytes captured (4720 bits) on interface 0
    Interface id: 0 (\Device\NPF_{0D133629-3E86-4133-9D89-4F7DF2E1C4F9})
    Encapsulation type: Ethernet (1)
    Arrival Time: Nov 16, 2022 18:28:40.102861000 中国标准时间
    [Time shift for this packet: 0.000000000 seconds]
    Epoch Time: 1668594520.102861000 seconds
    [Time delta from previous captured frame: 0.000843000 seconds]
    [Time delta from previous displayed frame: 0.000843000 seconds]
    [Time since reference or first frame: 640.307830000 seconds]
    Frame Number: 46837
    Frame Length: 590 bytes (4720 bits)
    Capture Length: 590 bytes (4720 bits)
    [Frame is marked: False]
    [Frame is ignored: False]
    [Protocols in frame: eth:ethertype:ip:udp:bootp]
    [Coloring Rule Name: UDP]
    [Coloring Rule String: udp]
Ethernet II, Src: bogon (54:75:95:17:b5:26), Dst: weilaix.local (84:a9:38:5b:fd:53)
    Destination: weilaix.local (84:a9:38:5b:fd:53)
        Address: weilaix.local (84:a9:38:5b:fd:53)
        .... ..0. .... .... .... .... = LG bit: Globally unique address (factory default)
        .... ...0 .... .... .... .... = IG bit: Individual address (unicast)
    Source: bogon (54:75:95:17:b5:26)
        Address: bogon (54:75:95:17:b5:26)
        .... ..0. .... .... .... .... = LG bit: Globally unique address (factory default)
        .... ...0 .... .... .... .... = IG bit: Individual address (unicast)
    Type: IPv4 (0x0800)
Internet Protocol Version 4, Src: 192.168.0.104 (192.168.0.104), Dst: weilaix.local (192.168.0.102)
    0100 .... = Version: 4
    .... 0101 = Header Length: 20 bytes (5)
    Differentiated Services Field: 0x00 (DSCP: CS0, ECN: Not-ECT)
        0000 00.. = Differentiated Services Codepoint: Default (0)
        .... ..00 = Explicit Congestion Notification: Not ECN-Capable Transport (0)
    Total Length: 576
    Identification: 0x00e5 (229)
    Flags: 0x02 (Don't Fragment)
        0... .... = Reserved bit: Not set
        .1.. .... = Don't fragment: Set
        ..0. .... = More fragments: Not set
    Fragment offset: 0
    Time to live: 64
    Protocol: UDP (17)
    Header checksum: 0xb5a9 [validation disabled]
    [Header checksum status: Unverified]
    Source: 192.168.0.104 (192.168.0.104)
    Destination: weilaix.local (192.168.0.102)
    [Source GeoIP: Unknown]
    [Destination GeoIP: Unknown]
User Datagram Protocol, Src Port: bootps (67), Dst Port: bootpc (68)
    Source Port: bootps (67)
    Destination Port: bootpc (68)
    Length: 556
    Checksum: 0x2e88 [unverified]
    [Checksum Status: Unverified]
    [Stream index: 1]
Bootstrap Protocol (ACK)
    Message type: Boot Reply (2)
    Hardware type: Ethernet (0x01)
    Hardware address length: 6
    Hops: 0
    Transaction ID: 0x66489af7
    Seconds elapsed: 0
    Bootp flags: 0x0000 (Unicast)
        0... .... .... .... = Broadcast flag: Unicast
        .000 0000 0000 0000 = Reserved flags: 0x0000
    Client IP address: weilaix.local (192.168.0.102)
    Your (client) IP address: weilaix.local (192.168.0.102)
    Next server IP address: 0.0.0.0 (0.0.0.0)
    Relay agent IP address: 0.0.0.0 (0.0.0.0)
    Client MAC address: weilaix.local (84:a9:38:5b:fd:53)
    Client hardware address padding: 00000000000000000000
    Server host name not given
    Boot file name not given
    Magic cookie: DHCP
    Option: (53) DHCP Message Type (ACK)
        Length: 1
        DHCP: ACK (5)
    Option: (54) DHCP Server Identifier
        Length: 4
        DHCP Server Identifier: 192.168.0.104 (192.168.0.104)
    Option: (51) IP Address Lease Time
        Length: 4
        IP Address Lease Time: (7200s) 2 hours
    Option: (6) Domain Name Server
        Length: 8
        Domain Name Server: 172.168.0.135 (172.168.0.135)
        Domain Name Server: 10.1.3.135 (10.1.3.135)
    Option: (1) Subnet Mask
        Length: 4
        Subnet Mask: 255.255.255.0
    Option: (3) Router
        Length: 4
        Router: 192.168.0.104 (192.168.0.104)
    Option: (255) End
        Option End: 255
    Padding: 000000000000000000000000000000000000000000000000...




0000   84 a9 38 5b fd 53 54 75 95 17 b5 26 08 00 45 00  ..8[.STu...&..E.
0010   02 40 00 e5 40 00 40 11 b5 a9 c0 a8 00 68 c0 a8  .@..@.@......h..
0020   00 66 00 43 00 44 02 2c 2e 88 02 01 06 00 66 48  .f.C.D.,......fH
0030   9a f7 00 00 00 00 c0 a8 00 66 c0 a8 00 66 00 00  .........f...f..
0040   00 00 00 00 00 00 84 a9 38 5b fd 53 00 00 00 00  ........8[.S....
0050   00 00 00 00 00 00 00 00 00 00 00 00 00 00 00 00  ................
0060   00 00 00 00 00 00 00 00 00 00 00 00 00 00 00 00  ................
0070   00 00 00 00 00 00 00 00 00 00 00 00 00 00 00 00  ................
0080   00 00 00 00 00 00 00 00 00 00 00 00 00 00 00 00  ................
0090   00 00 00 00 00 00 00 00 00 00 00 00 00 00 00 00  ................
00a0   00 00 00 00 00 00 00 00 00 00 00 00 00 00 00 00  ................
00b0   00 00 00 00 00 00 00 00 00 00 00 00 00 00 00 00  ................
00c0   00 00 00 00 00 00 00 00 00 00 00 00 00 00 00 00  ................
00d0   00 00 00 00 00 00 00 00 00 00 00 00 00 00 00 00  ................
00e0   00 00 00 00 00 00 00 00 00 00 00 00 00 00 00 00  ................
00f0   00 00 00 00 00 00 00 00 00 00 00 00 00 00 00 00  ................
0100   00 00 00 00 00 00 00 00 00 00 00 00 00 00 00 00  ................
0110   00 00 00 00 00 00 63 82 53 63 35 01 05 36 04 c0  ......c.Sc5..6..
0120   a8 00 68 33 04 00 00 1c 20 06 08 ac a8 00 87 0a  ..h3.... .......
0130   01 03 87 01 04 ff ff ff 00 03 04 c0 a8 00 68 ff  ..............h.
0140   00 00 00 00 00 00 00 00 00 00 00 00 00 00 00 00  ................
0150   00 00 00 00 00 00 00 00 00 00 00 00 00 00 00 00  ................
0160   00 00 00 00 00 00 00 00 00 00 00 00 00 00 00 00  ................
0170   00 00 00 00 00 00 00 00 00 00 00 00 00 00 00 00  ................
0180   00 00 00 00 00 00 00 00 00 00 00 00 00 00 00 00  ................
0190   00 00 00 00 00 00 00 00 00 00 00 00 00 00 00 00  ................
01a0   00 00 00 00 00 00 00 00 00 00 00 00 00 00 00 00  ................
01b0   00 00 00 00 00 00 00 00 00 00 00 00 00 00 00 00  ................
01c0   00 00 00 00 00 00 00 00 00 00 00 00 00 00 00 00  ................
01d0   00 00 00 00 00 00 00 00 00 00 00 00 00 00 00 00  ................
01e0   00 00 00 00 00 00 00 00 00 00 00 00 00 00 00 00  ................
01f0   00 00 00 00 00 00 00 00 00 00 00 00 00 00 00 00  ................
0200   00 00 00 00 00 00 00 00 00 00 00 00 00 00 00 00  ................
0210   00 00 00 00 00 00 00 00 00 00 00 00 00 00 00 00  ................
0220   00 00 00 00 00 00 00 00 00 00 00 00 00 00 00 00  ................
0230   00 00 00 00 00 00 00 00 00 00 00 00 00 00 00 00  ................
0240   00 00 00 00 00 00 00 00 00 00 00 00 00 00        ..............



