dhcp discover 过滤
eth.addr == ff:ff:ff:ff:ff:ff

将内容拷贝过来：展开全部，复制所有可见项目



dhcp属于udp协议




    
Frame 82: 286 bytes on wire (2288 bits), 286 bytes captured (2288 bits) on interface 0
    Interface id: 0 (\Device\NPF_{0D133629-3E86-4133-9D89-4F7DF2E1C4F9})
    Encapsulation type: Ethernet (1)
    Arrival Time: Nov 16, 2022 16:22:58.775855000 中国标准时间
    [Time shift for this packet: 0.000000000 seconds]
    Epoch Time: 1668586978.775855000 seconds
    [Time delta from previous captured frame: 0.029233000 seconds]
    [Time delta from previous displayed frame: 0.000000000 seconds]
    [Time since reference or first frame: 4.934295000 seconds]
    Frame Number: 82
    Frame Length: 286 bytes (2288 bits)
    Capture Length: 286 bytes (2288 bits)
    [Frame is marked: False]
    [Frame is ignored: False]
    [Protocols in frame: eth:ethertype:ip:udp:bootp]
    [Coloring Rule Name: ___conversation_color_filter___01]
    [Coloring Rule String: eth.addr eq 00:00:00:00:00:11 and eth.addr eq ff:ff:ff:ff:ff:ff]
Ethernet II, Src: 00:00:00_00:00:11 (00:00:00:00:00:11), Dst: Broadcast (ff:ff:ff:ff:ff:ff)
    Destination: Broadcast (ff:ff:ff:ff:ff:ff)
        Address: Broadcast (ff:ff:ff:ff:ff:ff)
        .... ..1. .... .... .... .... = LG bit: Locally administered address (this is NOT the factory default)
        .... ...1 .... .... .... .... = IG bit: Group address (multicast/broadcast)
    Source: 00:00:00_00:00:11 (00:00:00:00:00:11)
        Address: 00:00:00_00:00:11 (00:00:00:00:00:11)
        .... ..0. .... .... .... .... = LG bit: Globally unique address (factory default)
        .... ...0 .... .... .... .... = IG bit: Individual address (unicast)
    Type: IPv4 (0x0800)
Internet Protocol Version 4, Src: bogon (192.168.9.10), Dst: bogon (192.168.9.250)
    0100 .... = Version: 4
    .... 0101 = Header Length: 20 bytes (5)
    Differentiated Services Field: 0x00 (DSCP: CS0, ECN: Not-ECT)
        0000 00.. = Differentiated Services Codepoint: Default (0)
        .... ..00 = Explicit Congestion Notification: Not ECN-Capable Transport (0)
    Total Length: 272
    Identification: 0x0001 (1)
    Flags: 0x00
        0... .... = Reserved bit: Not set
        .0.. .... = Don't fragment: Not set
        ..0. .... = More fragments: Not set
    Fragment offset: 0
    Time to live: 64
    Protocol: UDP (17)
    Header checksum: 0xe587 [validation disabled]
    [Header checksum status: Unverified]
    Source: bogon (192.168.9.10)
    Destination: bogon (192.168.9.250)
    [Source GeoIP: Unknown]
    [Destination GeoIP: Unknown]
User Datagram Protocol, Src Port: bootpc (68), Dst Port: bootps (67)
    Source Port: bootpc (68)
    Destination Port: bootps (67)
    Length: 252
    Checksum: 0x5299 [unverified]
    [Checksum Status: Unverified]
    [Stream index: 2]
Bootstrap Protocol (Discover)
    Message type: Boot Request (1)
    Hardware type: Ethernet (0x01)
    Hardware address length: 6
    Hops: 0
    Transaction ID: 0xdf20c278
    Seconds elapsed: 0
    Bootp flags: 0x8000, Broadcast flag (Broadcast)
        1... .... .... .... = Broadcast flag: Broadcast
        .000 0000 0000 0000 = Reserved flags: 0x0000
    Client IP address: 0.0.0.0 (0.0.0.0)
    Your (client) IP address: 0.0.0.0 (0.0.0.0)
    Next server IP address: 0.0.0.0 (0.0.0.0)
    Relay agent IP address: 0.0.0.0 (0.0.0.0)
    Client MAC address: 00:00:00_00:00:00 (00:00:00:00:00:00)
    Client hardware address padding: 00000000000000000000
    Server host name not given
    Boot file name not given
    Magic cookie: DHCP
    Option: (53) DHCP Message Type (Discover)
        Length: 1
        DHCP: Discover (1)
    Option: (255) End
        Option End: 255







107	2022-11-16 16:15:28.341236	bogon	bogon	DHCP	286	DHCP Discover - Transaction ID 0xdf20c278

0000   ff ff ff ff ff ff 00 00 00 00 00 11 08 00 45 00  ..............E.
0010   01 10 00 01 00 00 40 11 e5 87 c0 a8 09 0a c0 a8  ......@.........
0020   09 fa 00 44 00 43 00 fc 52 99 01 01 06 00 df 20  ...D.C..R...... 
0030   c2 78 00 00 80 00 00 00 00 00 00 00 00 00 00 00  .x..............
0040   00 00 00 00 00 00 00 00 00 00 00 00 00 00 00 00  ................
0050   00 00 00 00 00 00 00 00 00 00 00 00 00 00 00 00  ................
0060   00 00 00 00 00 00 00 00 00 00 00 00 00 00 00 00  ................
0070   00 00 00 00 00 00 00 00 00 00 00 00 00 00 00 00  ................
0080   00 00 00 00 00 00 00 00 00 00 00 00 00 00 00 00  ................
0090   00 00 00 00 00 00 00 00 00 00 00 00 00 00 00 00  ................
00a0   00 00 00 00 00 00 00 00 00 00 00 00 00 00 00 00  ................
00b0   00 00 00 00 00 00 00 00 00 00 00 00 00 00 00 00  ................
00c0   00 00 00 00 00 00 00 00 00 00 00 00 00 00 00 00  ................
00d0   00 00 00 00 00 00 00 00 00 00 00 00 00 00 00 00  ................
00e0   00 00 00 00 00 00 00 00 00 00 00 00 00 00 00 00  ................
00f0   00 00 00 00 00 00 00 00 00 00 00 00 00 00 00 00  ................
0100   00 00 00 00 00 00 00 00 00 00 00 00 00 00 00 00  ................
0110   00 00 00 00 00 00 63 82 53 63 35 01 01 ff        ......c.Sc5...



----
# Packet 0 from C:\Users\weilaidb\AppData\Local\Temp\wireshark_0D133629-3E86-4133-9D89-4F7DF2E1C4F9_20221116161523_a08828.pcapng
- 107
- 2022-11-16 16:15:28.341236
- bogon
- bogon
- DHCP
- 286
- DHCP Discover - Transaction ID 0xdf20c278
